:1000000065C0F3C17EC07DC07CC07BC07AC079C0B2
:1000100078C02BC476C075C074C073C072C071C084
:1000200070C06FC06EC0DFC6A9C6AEC6B4C6BAC6C1
:10003000BFC6C4C6CAC6D0C600C7FFC6FEC6F0C685
:10004000FCC6FEC60DC721C743C752C769C782C7D2
:10005000A3C7BBC7E4C70EC80403090412036F009B
:1000600062006400650076002E00610074001403D5
:100070004400610074006100530074006F0072005E
:10008000650012011001000000083412682400010C
:100090000102000109022200010100800A09040096
:1000A00000010300000009210101000122160007E0
:1000B0000581030800640600FF0901A1011500265F
:1000C000FF00750895800900B20201C011241FBE0F
:1000D000CFE5D4E0DEBFCDBF11E0A0E6B0E0E2E1C5
:1000E000FEE102C005900D92AA36B107D9F712E0E1
:1000F000AAE6B1E001C01D92AA32B107E1F7F1D73B
:1001000086CE7ECF85B7826085BF8BB780648BBF7C
:100110008BE480937D018AE580937C0108951F9391
:10012000DC01162F80917C0184FF07C080917D0146
:1001300098E8892780937D0103C08AE580937C013C
:10014000912FEEE7F1E08D91819391501916DCF338
:100150008EE791E0612F45D11C5F10937C011F91C8
:1001600008951F93CF93DF9360918D01635067FDD6
:10017000BDC080918A01CCE0D0E0C81BD109CF5628
:10018000DE4F809189018D3209F09EC0683009F000
:10019000ABC083EC809371018AE58093600010927C
:1001A0006A018881807639F0CE014CD3282F8F3FA9
:1001B00009F479C07FC09A8110927A0189818823DD
:1001C00021F410927B0122E067C0853019F49093EE
:1001D0008E0161C0863009F04AC08B81813019F4EC
:1001E00082E890E01BC0823041F484E990E0909373
:1001F0008C0180938B0122E236C08330F9F48A812E
:10020000882341F488E590E090938C0180938B01E2
:1002100024E029C0813041F48CE590E090938C017A
:1002200080938B0122E11FC08230E1F48EE690E0E2
:1002300090938C0180938B0124E115C0813241F4AD
:1002400086EA90E090938C0180938B0129E00BC0AB
:10025000823241F486EB90E090938C0180938B0185
:1002600026E101C020E080E480936A0123C0883049
:1002700021F421E080E991E011C0893019F49093D4
:10028000900109C08A3011F421E006C08B3019F4C6
:100290008BE480937D0120E08AE791E090938C01CC
:1002A00080938B0107C0888187FD2E8180E8809331
:1002B0006A0106C08F81882319F48E81821708F0A5
:1002C000822F8093610010C080916A0187FF0CC06B
:1002D000CE014AD28F3F21F48EE18093600004C0AA
:1002E000882311F01092610010928D0180916000BE
:1002F00084FF54C0809161008F3F09F44FC0182FD4
:10030000893008F018E0811B8093610080917101B1
:1003100098E8892780937101112371F180916A0116
:1003200087FF08C082E791E0612FBFD1182F893085
:1003300078F522C020918B0130918C0186FF0AC094
:10034000912FF901A2E7B1E084918D9331969150FC
:10035000D9F708C0912FD901E2E7F1E08D9181939F
:100360009150E1F7C90101961150810F911D1F5F56
:1003700090938C0180938B0182E791E0612F31D0C3
:10038000612F6C5F6C3041F08FEF8093610004C08F
:100390008FEF809361006EE16093600094E180B321
:1003A000847131F49150D9F710928E011092880126
:1003B000DF91CF911F910895A82FB92F80E090E091
:1003C00041E050EA609530E009C02D918227979571
:1003D000879510F084279527305EC8F36F5FA8F3E8
:1003E0000895EADF8D939D930895CF93CFB7CF9370
:1003F000C395849BE9F7849B09C0849B07C0849BB9
:1004000005C0849B03C0849B01C0A3C0DF93C0913F
:100410008A01DD27CF56DE4F849B02C0DF91EBCFF0
:100420002F930F931F9300B32FEF04FB20F94F93EB
:100430003F9310B34FEF012704FB21F93BE031C09C
:100440004E7F012F10B3216028C0102F4D7F2260F6
:10045000000000B329C04B7F2460012F000010B3BF
:100460002BC010B3477F28602AC04F7E00B32061A5
:100470002CC04F7D10B320622FC04F7B00B320648F
:1004800032C0422700B349934FEF0000102714FBFE
:1004900020F910B31471C9F1297F91F2012704FBEF
:1004A00021F900B3237F89F2315058F1102714FB52
:1004B00022F910B3277E79F2012704FB23F92F7C60
:1004C00081F200B3102714FB24F92F7971F200C0D8
:1004D00010B3012704FB25F92F7359F200C000B3B4
:1004E000102714FB26F9223040F200C010B3012778
:1004F00004FB27F9243028F64F77206810B300005A
:10050000F9CF10E41ABF002719C03B503195C31B27
:10051000D04010E41ABF0881033CF9F00B34E9F035
:10052000209188011981110F1213EDCF4A81441FC8
:10053000093641F10D3211F0013E29F700938F0188
:100540003F914F911F910F912F91DF91CAB7C6FD37
:100550004FCFCF91CFBFCF91189520918F012223FC
:1005600079F310918D01112369F534306AF13093DC
:100570008D012093890110918A013BE0311B30935A
:100580008A0122C000918D010130E4F40AE54F7028
:1005900049F43091600034FD19C000936000C1E758
:1005A000D1E018C030917C0134FD10C000937C0173
:1005B000CDE7D1E00FC02795A8F45150A9F4220F40
:1005C0000000F9CF4AE503C042ED01C0432FC4E16A
:1005D000D0E032E011B31461949A11BB02B320E46D
:1005E00014E15F93012756E002BB279520F4515098
:1005F00021F4220FF9CF012756E000003B5A02BB3D
:10060000D0F2279528F4515029F4220F0000F9CF99
:10061000012756E0279502BB20F4515021F4220F08
:10062000F9CF012756E02991332302BB21F60B7E37
:1006300010918E01110FC651D04002BB11F01093E2
:10064000880110E41ABF006111B31B7E402F4B7E5E
:100650005F9100C000C002BB11BB42BB71CF87B12C
:10066000856087B93E9A86B1876086B9379A0895C2
:10067000369A3699FECF34B130936D0125B120936F
:100680006E01722F60E0630F711D882777FD8095E2
:10069000982FBFD82CEE31E540E850E4E8D713D9C5
:1006A00070936C0160936B010895DC01909170016F
:1006B000961708F4692F20916F01222309F04CC08E
:1006C00080910D02813051F0813030F08230F9F0AC
:1006D000833009F041C02FC01C9203C080910B02EF
:1006E0008C93E091A901F091AA01808111968C93DD
:1006F0001197E091A901F091AA01818112968C9342
:100700001297E091A901F091AA0182810FC0809116
:100710001F028C938091040211968C931197809103
:10072000280212968C9312978091010213968C9353
:10073000139780910D0214968C9314978091210247
:1007400015968C93159780916D0116968C9316973C
:1007500080916E0117968C93260F20936F01961B44
:1007600090937001862F0895DC013091700133233E
:1007700009F465C0361708F4632F20916F01222316
:1007800009F053C011968C911197883008F04DC034
:1007900090E0880F991F880F991F90930A02809309
:1007A000090211968C911197E82FF0E0EE0FFF1FD0
:1007B000EE0FFF1FEF51FE4F80831196EC911197C2
:1007C000F0E0EE0FFF1FEE0FFF1FEF51FE4F1296EE
:1007D0008C91129781831196EC911197F0E0EE0FB6
:1007E000FF1FEE0FFF1FED51FE4F13968C911397D5
:1007F00080831196EC911197F0E0EE0FFF1FEE0F42
:10080000FF1FEF51FE4F14968C911497838383E062
:1008100080930D0281E08093030217968C918130C2
:1008200021F410920D0210920302260F20936F0103
:10083000832F861B8093700190E0882309F491E058
:10084000892F0895FC0180818076803261F4818156
:10085000813011F0893039F488E080937001109272
:100860006F018FEF089580E008951F920F920FB6E9
:100870000F9211248F939F9384E182BF8091DB01BB
:100880009091DC01009729F001979093DC0180930F
:10089000DB018091DD019091DE01009729F0019745
:1008A0009093DE018093DD018091DF019091E00162
:1008B000009729F001979093E0018093DF019F91C9
:1008C0008F910F900FBE0F901F901895DF93CF93CD
:1008D00000D000D000D0CDB7DEB788E190E09E8395
:1008E0008D838091AB018983F89485B381608A837D
:1008F00085B38E7F8B838B818C83898187FF02C038
:100900008A818C835A814B8129813C818D819E8192
:10091000ECEAF1E055BB1ED055BB1CD055BB1AD03C
:1009200055BB18D055BB16D055BB14D055BB12D0F3
:1009300055BB00C0219135BB000000000000000045
:1009400000000000342F27FD352F000045BB019724
:1009500009F70EC035BB00000000000000000000D9
:100960000000342F221F27FD352F000045BB0895BE
:1009700029833C839E838D83789426960FB6F894C2
:10098000DEBF0FBECDBFCF91DF910895883068F4F0
:10099000E3E08E9FF0011124E555FE4FF093AA018C
:1009A000E093A9016083418322830895EF92FF922F
:1009B0000F931F93E82EF62E042F10E0812F6E2D3B
:1009C0004F2D202FE3DF1F5F1830C1F77FDF1F910E
:1009D0000F91FF90EF900895282F2095253580F4F2
:1009E000822F90E09C01220F331F280F391F822F86
:1009F0008095809308021092060220930E020895BB
:100A00002A3A78F410920802255530E0C901880F7F
:100A1000991F820F931F80930602809580930E0288
:100A200008952A5A30E0C901880F991F820F931F39
:100A30008093080280958093060210920E0208951A
:100A40001F9310E080910702810FC6DF812F609114
:100A500008024091060220910E0298DF1F5F1830B5
:100A600089F734DF809107028F5F809307021F911F
:100A70000895809122029091230269E070E069D983
:100A800090932302809322028CED95E02CE231E0DA
:100A9000F9013197F1F70197D9F708951F9310E005
:100AA000812F60E040E020E071DF1F5F1830C1F768
:100AB000EFE0F2E01192119282E0EF31F807D1F706
:100AC0001092A8011092A7011F9108951F93B09949
:100AD00012C0B19910C080912702843618F48F5F3C
:100AE0008093270280912702813009F034C110924F
:100AF0000D02D4DF30C1B09923C080912702843623
:100B000018F48F5F80932702109127021130C1F4EF
:100B10001093210287E090E090930C0280930B02E7
:100B200080910F0290911002019690931002809391
:100B30000F0290932302809322029BDF10930D02F9
:100B4000B19924C080912702843618F48F5F809376
:100B50002702109127021130C9F482E0809321020C
:100B600086E090E090930C0280930B02809111023A
:100B70009091120201969093120280931102909329
:100B800023028093220275DF10930D02B29924C0D4
:100B900080912702843618F48F5F8093270210918A
:100BA00027021130C9F483E08093210285E090E0B0
:100BB00090930C0280930B02809113029091140287
:100BC00001969093140280931302909323028093D2
:100BD00022024FDF10930D02B39924C080912702A7
:100BE000843618F48F5F809327021091270211300A
:100BF000C9F484E08093210284E090E090930C0299
:100C000080930B02809115029091160201969093A9
:100C1000160280931502909323028093220229DF0B
:100C200010930D02B49924C080912702843618F4E1
:100C30008F5F80932702109127021130C9F485E05D
:100C40008093210283E090E090930C0280930B024A
:100C50008091170290911802019690931802809348
:100C60001702909323028093220203DF10930D0258
:100C7000B59924C080912702843618F48F5F809341
:100C80002702109127021130C9F486E080932102D7
:100C900082E090E090930C0280930B028091190205
:100CA00090911A02019690931A02809319029093E0
:100CB000230280932202DDDE10930D02869924C068
:100CC00080912702843618F48F5F80932702109159
:100CD00027021130C9F487E08093210281E090E07F
:100CE00090930C0280930B0280911B0290911C0246
:100CF000019690931C0280931B0290932302809391
:100D00002202B7DE10930D02879923C0809127023B
:100D1000843618F48F5F80932702109127021130D8
:100D2000D1F488E08093210210920C0210920B0201
:100D300080911D0290911E02019690931E02809355
:100D40001D02909323028093220293DE10930D02E2
:100D500002C0109227021F9108958091A7019091DF
:100D6000A801019709F49ADEE0912202F091230292
:100D7000E930F105F0F5ED5EFF4F099480910B022B
:100D800060916B0140E005C080910B0260E04091F2
:100D90006B0120E026C080910B0260E040E02091D2
:100DA0006B011FC040916B0180910B02642FF1CF4A
:100DB00020916B0180910B0260E00CC020916B01CF
:100DC00080910B02622F40E00CC020916B0180915A
:100DD0000B02622F422F05C080910B0260E640E6B5
:100DE00020E6D4DD089580910B0260E040E020E031
:100DF000CDDD0895B2DF6ADD08958091A70190915D
:100E0000A801019709F44ADE8091210290E0FC01DB
:100E10003197E830F10508F04CC0E45EFF4F0994CB
:100E200080912402609104024091280220910102E5
:100E3000ADDD80912402815020C0809124021DC02C
:100E400080912402609104024091280220910102C5
:100E50009DDD60912402709125026750704004C0AE
:100E60006091240270912502882777FD8095982F44
:100E7000D0D49F7738D2DC01CB016091040240913D
:100E800028022091010282DD089560912402709170
:100E90002502882777FD8095982FBBD49F7723D292
:100EA000DC01CB01609104024091280220910102F3
:100EB0006DDD08950F931F938091210290E0FC0156
:100EC0003197E830F10508F005C1EC5DFF4F09945A
:100ED0008091240260E040E020E058DD809124020F
:100EE000909125029093200280931F0201970FC0DA
:100EF0008091240260E040E020E048DD80912402FF
:100F0000909125029093200280931F020297909364
:100F10002502809324028F5F9F4F09F0DBC0D4C06D
:100F20008091240260E040E020E030DD80912402E6
:100F3000909125029093200280931F020297909334
:100F40002502809324028E5F9F4F09F0C3C086E084
:100F500090E0BCC08091240260E040E020E016DD1B
:100F600080912402909125029093200280931F0289
:100F700001979093250280932402892B09F0AAC03F
:100F800087E090E0909325028093240280E060E067
:100F900040E020E0FBDC9EC080912402909125027D
:100FA0009093200280931F020197909325028093D3
:100FB00024028F5F9F4F09F08DC087E090E09093EF
:100FC0002502809324026ADD85C08091240260E0BE
:100FD00040E020E0DBDC6091240270912502675044
:100FE0007040882777FD8095982F13D49F777BD109
:100FF000DC01CB0160E040E020E0C8DC809124020D
:10100000909125029093200280931F020197909364
:10101000250280932402039709F05CC055C06091BB
:10102000240270912502882777FD8095982FF1D3AF
:101030009F7759D1DC01CB0160E040E020E0A6DCE5
:101040000091240210912502B801882777FD809530
:10105000982FDFD39F7737D47093200260931F02BD
:10106000015010401093250200932402095F1F4F86
:1010700089F52AC06091240270912502882777FDA6
:101080008095982FC6D39F772ED1DC01CB0160E0ED
:1010900040E020E07BDC0091240210912502B801A1
:1010A000882777FD8095982FB4D39F770CD47093C1
:1010B000200260931F0201501040109325020093FC
:1010C0002402095F1F4F31F487E090E090932502DE
:1010D000809324021F910F9108958FDEF7DBEADEE3
:1010E0000895CF92DF92EF92FF920F931F93CF93C9
:1010F000DF932EE088E190E00FB6F894A89581BDCB
:101100000FBE21BD17BA8FE388BB81E084BB15BA3F
:1011100011BA80EC82BBF6D78C9A20E048EB5BE0FA
:1011200004C0A895CA010197F1F72150D1F78C9816
:10113000789489B7816089BF83B7846083BF80E872
:1011400082BF8DDA10920D021092260210920702D1
:101150001092030210922702109221021092DC01D9
:101160001092DB011092DE011092DD011092E0017D
:101170001092DF011092A8011092A70110920C02A8
:1011800010920B021092230210922202EFE0F2E082
:101190001192119282E0EF31F807D1F710922502F7
:1011A0001092240210920502109204021092290259
:1011B0001092280210920202109201021092200254
:1011C00010921F0210920A021092090207EC10E01E
:1011D00081E0C82ED12CC2E0D0E0B5E0EB2EF12C9E
:1011E000A895BFD780910D02882399F58091DB01E6
:1011F0009091DC01892B09F05EC01093DC01009313
:10120000DB0110922102D092A801C092A701809127
:101210002602882319F480916B0110C0813021F4DB
:1012200080E060916B010BC0823029F480E060E0C7
:1012300040916B0105C0833029F480E060E040E01C
:1012400020E0B4DB809126028F5F837080932602BA
:1012500032C0813061F48091DB019091DC01892BF7
:1012600051F5D093DC01C093DB01C4DD24C0823092
:1012700061F48091DB019091DC01892BE1F4109302
:10128000DC010093DB0129DF16C08330A1F48091DB
:101290000302882381F01092030210922102E09150
:1012A0000902F0910A02EF51FE4F80816181428173
:1012B00023816CDB0BDB8091DD019091DE01892BBA
:1012C00029F4D093DE01C093DD0100DC8091DF01C1
:1012D0009091E001892B09F083CFF092E001E09238
:1012E000DF01C6D97DCFEF92FF920F931F937B0151
:1012F0008C0120E030E040E05FE460D288237CF0A5
:10130000C801B70120E030E040E05FE45ED1DBD20D
:101310009B01AC01205030404040504805C0C801FE
:10132000B701D1D29B01AC01B901CA011F910F9144
:10133000FF90EF900895A0E0B0E0E0EAF9E030C55A
:10134000DC012B01FA019C91923008F439C1EB01C8
:101350008881823008F433C1943069F4843009F014
:101360002FC111969C9111978981981709F428C172
:10137000A2E6B0E025C1843009F421C18230A9F48D
:10138000923009F01DC19A01AD0188E0EA0109908F
:10139000AE01E90109929E018150C1F7E201898104
:1013A00011969C918923818308C1923009F407C169
:1013B00012962D903C901397EB018A819B81149695
:1013C000AD90BD90CD90DC901797EC80FD800E81A4
:1013D0001F819101281B390BB90137FF04C0662713
:1013E0007727621B730B603271050CF061C0121617
:1013F00013066CF537014801062E04C096948794B5
:10140000779467940A94D2F721E030E040E050E00E
:1014100004C0220F331F441F551F6A95D2F7215075
:101420003040404050402E213F2140235123211580
:1014300031054105510521F021E030E040E050E068
:1014400079018A01E628F728082919293CC0232BAD
:10145000D1F1260E371E35014601062E04C09694A2
:101460008794779467940A94D2F721E030E040E0C3
:1014700050E004C0220F331F441F551F6A95D2F756
:1014800021503040404050402A213B214C215D21D9
:10149000211531054105510521F021E030E040E002
:1014A00050E059016A01A628B728C828D9280BC0DE
:1014B000821593052CF01C01AA24BB24650103C0EE
:1014C000EE24FF24870111969C91D20111968C91F4
:1014D000981709F445C0992339F0A80197012A19F2
:1014E0003B094C095D0906C0A60195012E193F096B
:1014F000400B510B57FD08C0118233822282248396
:101500003583468357831DC081E0818333822282E5
:1015100088279927DC01821B930BA40BB50B8483CE
:101520009583A683B7830DC0220F331F441F551F19
:1015300024833583468357838281938101979383E4
:1015400082832481358146815781DA01C90101975F
:10155000A109B1098F5F9F4FAF4FBF4328F30BC065
:10156000918333822282EA0CFB1C0C1D1D1DE48238
:10157000F5820683178383E0808324813581468149
:10158000578157FF1AC0C901AA2797FDA095BA2F06
:1015900081709070A070B0705695479537952795DB
:1015A000822B932BA42BB52B84839583A683B7839F
:1015B00082819381019693838283DF0101C0D201EE
:1015C000CD01CDB7DEB7E2E107C4A0E2B0E0EAEEBC
:1015D000FAE0F2C369837A838B839C832D833E83F5
:1015E0004F835887E9E0EE2EF12CEC0EFD1ECE0164
:1015F0000196B701DDD28E010F5E1F4FCE01059619
:10160000B801D6D28A8991E089278A8BC701B801AF
:10161000AE01475E5F4F8FDEF6D1A096E6E0E8C3ED
:10162000A0E2B0E0E5E1FBE0C7C369837A838B8386
:101630009C832D833E834F835887F9E0EF2EF12C56
:10164000EC0EFD1ECE010196B701B2D28E010F5EE7
:101650001F4FCE010596B801ABD2C701B801AE014C
:10166000475E5F4F68DECFD1A096E6E0C1C3A8E138
:10167000B0E0ECE3FBE09CC369837A838B839C83BB
:101680002D833E834F835887B9E0EB2EF12CEC0E6F
:10169000FD1ECE010196B7018BD28E010F5E1F4F4A
:1016A000CE010596B80184D22985223008F47EC087
:1016B0003989323010F4B8017CC08A859A8989272B
:1016C0008A87243011F0223031F4231709F06EC0DC
:1016D00062E670E06EC0343039F41D861E861F86C7
:1016E000188A1C861B8604C0323021F484E0898766
:1016F000B7015FC02B853C858B899C89281B390BE2
:101700003C872B87ED84FE840F851889AD88BE88C1
:10171000CF88D88CEA14FB040C051D0540F4EE0CB0
:10172000FF1C001F111F215030403C872B8720E0F9
:1017300030E040E050E080E090E0A0E0B0E460E025
:1017400070E0EA14FB040C051D0540F0282B392B32
:101750004A2B5B2BEA18FB080C091D09B695A795C7
:1017600097958795EE0CFF1C001F111F6F5F7F4F31
:101770006F31710531F7DA01C9018F779070A07070
:10178000B07080349105A105B10561F427FD0AC050
:10179000E114F1040105110529F0205C3F4F4F4F82
:1017A0005F4F20782D873E874F87588BBE01675F3C
:1017B0007F4FCB0128D16896EAE016C3A8E1B0E0DC
:1017C000E3EEFBE0F9C269837A838B839C832D83EC
:1017D0003E834F83588789E0E82EF12CEC0EFD1EE6
:1017E000CE010196B701E4D18E010F5E1F4FCE01ED
:1017F0000596B801DDD18985823038F0898982303B
:1018000020F0C701B8014CD201C08FEF6896E6E026
:10181000EFC2A8E0B0E0EEE0FCE0CBC29B01AC017F
:1018200083E08983DA01C9018827B7FD8395992769
:10183000AA27BB27B82E211531054105510519F4FA
:1018400082E0898339C08823A9F0203080E03807FE
:1018500080E0480780E8580729F460E070E080E005
:101860009FEC2EC0EE24FF248701E21AF30A040B3A
:10187000150B02C079018A018EE1C82ED12CDC82C1
:10188000CB82ED82FE820F831887C801B7016CD02E
:1018900001971816190684F4082E04C0EE0CFF1CDC
:1018A000001F111F0A94D2F7ED82FE820F83188762
:1018B000C81AD90ADC82CB82BA82CE010196A3D0A3
:1018C0002896E9E092C2ACE0B0E0E8E6FCE078C23D
:1018D00069837A838B839C83CE010196BE016B5F03
:1018E0007F4F66D18D81823061F1823050F184303A
:1018F00021F48E81882351F12EC02F81388537FD48
:1019000020C06E812F3131051CF06623F9F023C011
:101910008EE190E0821B930B29853A854B855C858F
:1019200004C056954795379527958A95D2F7662333
:10193000B1F050954095309521953F4F4F4F5F4FF7
:101940000EC020E030E040E050E009C02FEF3FEF54
:101950004FEF5FE704C020E030E040E050E8B9011D
:10196000CA012C96E2E048C2EF92FF920F931F93B8
:101970007B018C0180E0E81680E0F80681E0080732
:1019800080E0180788F48FEFE816F10401051105CF
:1019900031F028F088E090E0A0E0B0E017C080E0EF
:1019A00090E0A0E0B0E012C080E0E81680E0F80629
:1019B00080E0080781E0180728F088E190E0A0E0C7
:1019C000B0E004C080E190E0A0E0B0E020E230E0D0
:1019D00040E050E0281B390B4A0B5B0B04C0169506
:1019E0000795F794E7948A95D2F7F701E659FF4FE8
:1019F0008081281B310941095109C9011F910F91AB
:101A0000FF90EF900895DF92EF92FF920F931F9354
:101A1000FC01E480F58006811781D18080818230CD
:101A200048F480E090E0A0E1B0E0E82AF92A0A2B2F
:101A30001B2BA5C0843009F49FC0823021F4EE2412
:101A4000FF24870105C0E114F1040105110519F413
:101A5000E0E0F0E096C0628173819FEF6238790721
:101A60000CF05BC022E83FEF261B370B2A31310513
:101A70002CF020E030E040E050E02AC0B801A7019F
:101A8000022E04C076956795579547950A94D2F72C
:101A900081E090E0A0E0B0E004C0880F991FAA1F89
:101AA000BB1F2A95D2F70197A109B1098E219F2169
:101AB000A023B1230097A105B10521F081E090E0BA
:101AC000A0E0B0E09A01AB01282B392B4A2B5B2B0D
:101AD000DA01C9018F779070A070B07080349105E1
:101AE000A105B10539F427FF09C0205C3F4F4F4FD6
:101AF0005F4F04C0215C3F4F4F4F5F4FE0E0F0E08D
:101B00002030A0E03A07A0E04A07A0E45A0710F00E
:101B1000E1E0F0E079018A0127C06038710564F5E1
:101B2000FB01E158FF4FD801C7018F779070A0707B
:101B3000B07080349105A105B10539F4E7FE0DC000
:101B400080E490E0A0E0B0E004C08FE390E0A0E08B
:101B5000B0E0E80EF91E0A1F1B1F17FF05C01695FF
:101B60000795F794E794319687E016950795F794D3
:101B7000E7948A95D1F705C0EE24FF248701EFEFA3
:101B8000F0E06E2F679566276795902F9F77D79423
:101B9000DD24D7948E2F8695492F462B582F5D290B
:101BA000B701CA011F910F91FF90EF90DF90089548
:101BB000FC01DB01408151812281622F6F7770E04F
:101BC000221F2227221F9381892F880F822B282FE3
:101BD00030E0991F9927991F11969C931197211511
:101BE0003105A9F5411551056105710511F482E032
:101BF00037C082E89FEF13969C938E9312979A01B9
:101C0000AB0167E0220F331F441F551F6A95D1F7C0
:101C100083E08C930DC0220F331F441F551F129673
:101C20008D919C911397019713969C938E93129785
:101C3000203080E0380780E0480780E4580758F3F8
:101C400014962D933D934D935C93179708952F3FD2
:101C5000310579F4411551056105710519F484E0E8
:101C60008C93089564FF03C081E08C9312C01C9292
:101C700010C02F57304013963C932E93129783E059
:101C80008C9387E0440F551F661F771F8A95D1F705
:101C9000706414964D935D936D937C93179708959C
:101CA0001F93DC01FB019C91923008F447C08081B6
:101CB000823008F443C0943051F411961C91843062
:101CC00099F58181682F70E0611B71093FC08430F4
:101CD00021F0923031F48230B9F18181882389F189
:101CE0002DC011961C9111978230F1F08181181747
:101CF000D9F412962D913C9113978281938182178A
:101D0000930794F028173907BCF014968D919D9194
:101D10000D90BC91A02D24813581468157812817D3
:101D200039074A075B0718F4112341F00AC08217EC
:101D30009307A407B50740F4112319F061E070E0A0
:101D400005C06FEF7FEF02C060E070E0CB011F9134
:101D5000089597FB092E07260AD077FD04D00CD0F2
:101D600006D000201AF4709561957F4F0895F6F71C
:101D7000909581959F4F0895AA1BBB1B51E107C009
:101D8000AA1FBB1FA617B70710F0A61BB70B881F0B
:101D9000991F5A95A9F780959095BC01CD0108959A
:101DA0002F923F924F925F926F927F928F929F926B
:101DB000AF92BF92CF92DF92EF92FF920F931F9359
:101DC000CF93DF93CDB7DEB7CA1BDB0B0FB6F8940A
:101DD000DEBF0FBECDBF09942A88398848885F844A
:101DE0006E847D848C849B84AA84B984C884DF80BB
:101DF000EE80FD800C811B81AA81B981CE0FD11D9F
:101E00000FB6F894DEBF0FBECDBFED010895F89474
:021E1000FFCF02
:101E12005AFF00000000000000000001020203035C
:101E2200030304040404040404040505050505056C
:101E3200050505050505050505050606060606064A
:101E42000606060606060606060606060606060630
:101E5200060606060606060606060707070707071A
:101E62000707070707070707070707070707070700
:101E720007070707070707070707070707070707F0
:101E820007070707070707070707070707070707E0
:101E920007070707070707070707080808080808CA
:101EA20008080808080808080808080808080808B0
:101EB20008080808080808080808080808080808A0
:101EC2000808080808080808080808080808080890
:101ED2000808080808080808080808080808080880
:101EE2000808080808080808080808080808080870
:101EF2000808080808080808080808080808080860
:101F0200080808080808080808080808080808084F
:0A1F12000808080808080808080875
:00000001FF
